{
  "address": "0x000000003dC765C2DfEdC05800c87f2040b435cD",
  "abi": [
    {
      "inputs": [
        {
          "internalType": "uint184",
          "name": "upperBound",
          "type": "uint184"
        }
      ],
      "name": "InvalidBound",
      "type": "error"
    },
    {
      "inputs": [
        {
          "internalType": "uint72",
          "name": "pctLongCap",
          "type": "uint72"
        }
      ],
      "name": "InvalidCap",
      "type": "error"
    },
    {
      "inputs": [
        {
          "internalType": "uint184",
          "name": "initialPrice",
          "type": "uint184"
        }
      ],
      "name": "InvalidInitialPrice",
      "type": "error"
    },
    {
      "inputs": [
        {
          "internalType": "address",
          "name": "longShortPair",
          "type": "address"
        }
      ],
      "name": "InvalidLSPAddress",
      "type": "error"
    },
    {
      "inputs": [
        {
          "internalType": "uint72",
          "name": "leverageFactor",
          "type": "uint72"
        }
      ],
      "name": "InvalidLeverage",
      "type": "error"
    },
    {
      "inputs": [],
      "name": "PRBMathSD59x18__AbsInputTooSmall",
      "type": "error"
    },
    {
      "inputs": [],
      "name": "PRBMathSD59x18__MulInputTooSmall",
      "type": "error"
    },
    {
      "inputs": [
        {
          "internalType": "uint256",
          "name": "rAbs",
          "type": "uint256"
        }
      ],
      "name": "PRBMathSD59x18__MulOverflow",
      "type": "error"
    },
    {
      "inputs": [
        {
          "internalType": "int256",
          "name": "x",
          "type": "int256"
        }
      ],
      "name": "PRBMathSD59x18__SqrtNegativeInput",
      "type": "error"
    },
    {
      "inputs": [
        {
          "internalType": "int256",
          "name": "x",
          "type": "int256"
        }
      ],
      "name": "PRBMathSD59x18__SqrtOverflow",
      "type": "error"
    },
    {
      "inputs": [
        {
          "internalType": "uint256",
          "name": "prod1",
          "type": "uint256"
        }
      ],
      "name": "PRBMath__MulDivFixedPointOverflow",
      "type": "error"
    },
    {
      "inputs": [],
      "name": "ParametersNotSet",
      "type": "error"
    },
    {
      "inputs": [],
      "name": "ParametersSet",
      "type": "error"
    },
    {
      "inputs": [
        {
          "internalType": "address",
          "name": "",
          "type": "address"
        }
      ],
      "name": "longShortPairParameters",
      "outputs": [
        {
          "internalType": "uint184",
          "name": "upperBound",
          "type": "uint184"
        },
        {
          "internalType": "uint72",
          "name": "pctLongCap",
          "type": "uint72"
        },
        {
          "internalType": "uint184",
          "name": "initialPrice",
          "type": "uint184"
        },
        {
          "internalType": "uint72",
          "name": "leverageFactor",
          "type": "uint72"
        }
      ],
      "stateMutability": "view",
      "type": "function"
    },
    {
      "inputs": [
        {
          "internalType": "int256",
          "name": "expiryPrice",
          "type": "int256"
        }
      ],
      "name": "percentageLongCollateralAtExpiry",
      "outputs": [
        {
          "internalType": "uint256",
          "name": "",
          "type": "uint256"
        }
      ],
      "stateMutability": "view",
      "type": "function"
    },
    {
      "inputs": [
        {
          "internalType": "address",
          "name": "longShortPair",
          "type": "address"
        },
        {
          "internalType": "uint184",
          "name": "upperBound",
          "type": "uint184"
        },
        {
          "internalType": "uint72",
          "name": "pctLongCap",
          "type": "uint72"
        },
        {
          "internalType": "uint184",
          "name": "initialPrice",
          "type": "uint184"
        },
        {
          "internalType": "uint72",
          "name": "leverageFactor",
          "type": "uint72"
        }
      ],
      "name": "setLongShortPairParameters",
      "outputs": [],
      "stateMutability": "nonpayable",
      "type": "function"
    }
  ],
  "transactionHash": "0xfc3e4943145aba12269acab0ae223a9e23bc3d9cf113be10349a37688e2f013b",
  "args": [],
  "solcInputHash": "aaf21535b65fe2dfc1d522cd60d041d6",
  "bytecode": "0x608060405234801561001057600080fd5b506000805460ff19166001179055610d628061002d6000396000f3fe608060405234801561001057600080fd5b50600436106100415760003560e01c80632da52361146100465780636760f09b1461006c5780639299cbed14610081575b600080fd5b610059610054366004610a1f565b61010b565b6040519081526020015b60405180910390f35b61007f61007a366004610a7d565b610375565b005b6100d161008f366004610ae2565b600160208190526000918252604090912080549101546001600160b81b03808316926001600160481b03600160b81b9182900481169392831692919091041684565b604080516001600160b81b0395861681526001600160481b0394851660208201529490921691840191909152166060820152608001610063565b6000610115610611565b33600090815260016020818152604092839020835160808101855281546001600160b81b038082168084526001600160481b03600160b81b938490048116968501969096529390950154948516958201959095529390920416606083015261019057604051636ba8dee360e01b815260040160405180910390fd5b600060018413156101a157836101a4565b60015b60408301516101c4906001600160b81b0316670de0b6b3a7640000610b1a565b6101ce9190610b4f565b905060006101db82610665565b6101ed90671bc16d674ec80000610b63565b9050600061020383670de0b6b3a7640000610be8565b90506000670de0b6b3a764000061021a8385610c29565b6102249190610c57565b9050600061024886606001516001600160481b0316610242846106e1565b9061071d565b61025a90670de0b6b3a7640000610be8565b90506000670de0b6b3a764000087602001516001600160481b031688600001516102849190610c96565b61028e9190610cc5565b6001600160b81b031690506000670de0b6b3a76400008860200151670de0b6b3a76400006102bc9190610ceb565b89516102d1916001600160481b031690610c96565b6102db9190610cc5565b6001600160b81b03169050818310610309575050506020909401516001600160481b03169695505050505050565b80831161033e57602088015161032790670de0b6b3a7640000610ceb565b6001600160481b03169a9950505050505050505050565b87516001600160b81b031661035b84670de0b6b3a7640000610b1a565b6103659190610b4f565b985050505050505050505b919050565b61037d610611565b61038c6000805460ff19169055565b846001600160a01b0316639f43ddd26040518163ffffffff1660e01b815260040160206040518083038186803b1580156103c557600080fd5b505afa1580156103d9573d6000803e3d6000fd5b505050506040513d601f19601f820116820180604052508101906103fd9190610d13565b61042a5760405163d096610560e01b81526001600160a01b03861660048201526024015b60405180910390fd5b6001600160b81b03841661045c576040516351a22ceb60e11b81526001600160b81b0385166004820152602401610421565b670de0b6b3a7640000836001600160481b03161061049857604051632ea539c360e01b81526001600160481b0384166004820152602401610421565b6001600160b81b0382166104ca5760405163158022fb60e11b81526001600160b81b0383166004820152602401610421565b6001600160481b0381166104fc57604051636e66464f60e01b81526001600160481b0382166004820152602401610421565b6001600160a01b038516600090815260016020818152604092839020835160808101855281546001600160b81b038082168084526001600160481b03600160b81b93849004811696850196909652939095015494851695820195909552939092041660608301521561058157604051633190ad1960e01b815260040160405180910390fd5b50604080516080810182526001600160b81b0386811682526001600160481b038681166020808501918252878416858701908152878416606087019081526001600160a01b038d16600090815260019384905297882096519351938616600160b81b948616850217875590519051941693909216029190911791810191909155815460ff19161790555050505050565b60005460ff166106635760405162461bcd60e51b815260206004820152601f60248201527f5265656e7472616e637947756172643a207265656e7472616e742063616c6c006044820152606401610421565b565b60008082121561068b5760405163608c83ff60e11b815260048101839052602401610421565b7809392ee8e921d5d073aff322e62439fcf32d7f344649470f908213156106c857604051632c482c3960e01b815260048101839052602401610421565b6106db670de0b6b3a764000083026107e2565b92915050565b6000600160ff1b82141561070857604051631d0742e360e21b815260040160405180910390fd5b6000821261071657816106db565b5060000390565b6000600160ff1b8314806107345750600160ff1b82145b1561075257604051630d01a11b60e21b815260040160405180910390fd5b600080600085126107635784610768565b846000035b915060008412610778578361077d565b836000035b9050600061078b838361095d565b90506001600160ff1b038111156107b85760405163bf79e8d960e01b815260048101829052602401610421565b6000198087139086138082186001146107d157826107d6565b826000035b98975050505050505050565b6000816107f157506000919050565b50600181600160801b811061080b5760409190911b9060801c5b6801000000000000000081106108265760209190911b9060401c5b640100000000811061083d5760109190911b9060201c5b6201000081106108525760089190911b9060101c5b61010081106108665760049190911b9060081c5b601081106108795760029190911b9060041c5b6008811061088957600182901b91505b600182848161089a5761089a610b39565b048301901c915060018284816108b2576108b2610b39565b048301901c915060018284816108ca576108ca610b39565b048301901c915060018284816108e2576108e2610b39565b048301901c915060018284816108fa576108fa610b39565b048301901c9150600182848161091257610912610b39565b048301901c9150600182848161092a5761092a610b39565b048301901c9150600082848161094257610942610b39565b049050808310156109535782610955565b805b949350505050565b60008080600019848609848602925082811083820303915050670de0b6b3a764000081106109a15760405163698d9a0160e11b815260048101829052602401610421565b600080670de0b6b3a76400008688099150506706f05b59d3b1ffff8111826109db5780670de0b6b3a76400008504019450505050506106db565b620400008285030493909111909103600160ee1b02919091177faccb18165bd6fe31ae1cf318dc5b51eee0e1ba569b88cd74c1773b91fac106690201905092915050565b600060208284031215610a3157600080fd5b5035919050565b80356001600160a01b038116811461037057600080fd5b80356001600160b81b038116811461037057600080fd5b80356001600160481b038116811461037057600080fd5b600080600080600060a08688031215610a9557600080fd5b610a9e86610a38565b9450610aac60208701610a4f565b9350610aba60408701610a66565b9250610ac860608701610a4f565b9150610ad660808701610a66565b90509295509295909350565b600060208284031215610af457600080fd5b610afd82610a38565b9392505050565b634e487b7160e01b600052601160045260246000fd5b6000816000190483118215151615610b3457610b34610b04565b500290565b634e487b7160e01b600052601260045260246000fd5b600082610b5e57610b5e610b39565b500490565b60006001600160ff1b0381841382841380821686840486111615610b8957610b89610b04565b600160ff1b6000871282811687830589121615610ba857610ba8610b04565b60008712925087820587128484161615610bc457610bc4610b04565b87850587128184161615610bda57610bda610b04565b505050929093029392505050565b600080821280156001600160ff1b0384900385131615610c0a57610c0a610b04565b600160ff1b8390038412811615610c2357610c23610b04565b50500190565b600082610c3857610c38610b39565b600160ff1b821460001984141615610c5257610c52610b04565b500590565b60008083128015600160ff1b850184121615610c7557610c75610b04565b6001600160ff1b0384018313811615610c9057610c90610b04565b50500390565b60006001600160b81b0382811684821681151582840482111615610cbc57610cbc610b04565b02949350505050565b60006001600160b81b0383811680610cdf57610cdf610b39565b92169190910492915050565b60006001600160481b0383811690831681811015610d0b57610d0b610b04565b039392505050565b600060208284031215610d2557600080fd5b505191905056fea26469706673582212206e0c3726b756186c081439636585919cf630df55767c508a01fa43b0fbbb124564736f6c63430008090033",
  "devdoc": {
    "errors": {
      "InvalidBound(uint184)": [
        {
          "params": {
            "upperBound": "The upper price that the LSP will operate within."
          }
        }
      ],
      "InvalidCap(uint72)": [
        {
          "params": {
            "pctLongCap": "The cap on the percentage that can be allocated to the long token - enforced for improving MM on v2 AMMs for both L&S tokens."
          }
        }
      ],
      "InvalidInitialPrice(uint184)": [
        {
          "params": {
            "initialPrice": "The price of the asset at LSP deployment, used to calculate returns."
          }
        }
      ],
      "InvalidLSPAddress(address)": [
        {
          "params": {
            "longShortPair": "The address of the LSP contract."
          }
        }
      ],
      "InvalidLeverage(uint72)": [
        {
          "params": {
            "leverageFactor": "The amount of leverage you want to apply to the asset return."
          }
        }
      ]
    },
    "kind": "dev",
    "methods": {
      "percentageLongCollateralAtExpiry(int256)": {
        "params": {
          "expiryPrice": "The price from the optimistic oracle for the LSP price identifier."
        },
        "returns": {
          "_0": "expiryPercentLong to indicate how much collateral should be sent between long and short tokens."
        }
      },
      "setLongShortPairParameters(address,uint184,uint72,uint184,uint72)": {
        "details": "Note: a) Any address can set these parameters b) existing LSP parameters for address not set. c) upperBound > lowerBound. d) parameters can only be set once to prevent the deployer from changing the parameters after the fact. e) For safety, parameters should be set before depositing any synthetic tokens in a liquidity pool. f) longShortPair must expose an expirationTimestamp method to validate it is correctly deployed.",
        "params": {
          "initialPrice": "The price of the asset at LSP deployment, used to calculate returns.",
          "leverageFactor": "The amount of leverage you want to apply to the asset return.",
          "longShortPair": "The address of the LSP contract.",
          "pctLongCap": "The cap on the percentage that can be allocated to the long token - enforced for improving MM on v2 AMMs for both L&S tokens.",
          "upperBound": "The upper price that the LSP will operate within."
        }
      }
    },
    "title": "Leveraged IL Long Short Pair Financial Product Library.",
    "version": 1
  },
  "userdoc": {
    "errors": {
      "InvalidBound(uint184)": [
        {
          "notice": "`upperBound` has to be greater than zero."
        }
      ],
      "InvalidCap(uint72)": [
        {
          "notice": "`pctLongCap` has to be less than 1 ether."
        }
      ],
      "InvalidInitialPrice(uint184)": [
        {
          "notice": "`initialPrice` has to be greater than zero."
        }
      ],
      "InvalidLSPAddress(address)": [
        {
          "notice": "`longShortPair` is not a valid LSP address."
        }
      ],
      "InvalidLeverage(uint72)": [
        {
          "notice": "`leverageFactor` has to be greater than 0."
        }
      ],
      "PRBMathSD59x18__AbsInputTooSmall()": [
        {
          "notice": "Emitted when the input is MIN_SD59x18."
        }
      ],
      "PRBMathSD59x18__MulInputTooSmall()": [
        {
          "notice": "Emitted when one of the inputs is MIN_SD59x18."
        }
      ],
      "PRBMathSD59x18__MulOverflow(uint256)": [
        {
          "notice": "Emitted when the intermediary absolute result overflows SD59x18."
        }
      ],
      "PRBMathSD59x18__SqrtNegativeInput(int256)": [
        {
          "notice": "Emitted when the input is negative."
        }
      ],
      "PRBMathSD59x18__SqrtOverflow(int256)": [
        {
          "notice": "Emitted when the calculating the square root overflows SD59x18."
        }
      ],
      "PRBMath__MulDivFixedPointOverflow(uint256)": [
        {
          "notice": "Emitted when the result overflows uint256."
        }
      ],
      "ParametersNotSet()": [
        {
          "notice": "Parameters not set for calling LSP."
        }
      ],
      "ParametersSet()": [
        {
          "notice": "Parameters already set for calling LSP."
        }
      ]
    },
    "kind": "user",
    "methods": {
      "percentageLongCollateralAtExpiry(int256)": {
        "notice": "Returns a number between 0 and 1e18 to indicate how much collateral each long and short token is entitled to per collateralPerPair."
      },
      "setLongShortPairParameters(address,uint184,uint72,uint184,uint72)": {
        "notice": "Enables any address to set the parameters for an associated financial product."
      }
    },
    "notice": "Adds settlement logic to create leveraged IL payouts for LSP",
    "version": 1
  },
  "storageLayout": {
    "storage": [
      {
        "astId": 2013,
        "contract": "contracts/ImpermanentLossLeveragedReserveLSPL.sol:ImpermanentLossLeveragedReserveLSPL",
        "label": "_notEntered",
        "offset": 0,
        "slot": "0",
        "type": "t_bool"
      },
      {
        "astId": 2458,
        "contract": "contracts/ImpermanentLossLeveragedReserveLSPL.sol:ImpermanentLossLeveragedReserveLSPL",
        "label": "longShortPairParameters",
        "offset": 0,
        "slot": "1",
        "type": "t_mapping(t_address,t_struct(ImpermanentLossLeveragedReserveParameters)2453_storage)"
      }
    ],
    "types": {
      "t_address": {
        "encoding": "inplace",
        "label": "address",
        "numberOfBytes": "20"
      },
      "t_bool": {
        "encoding": "inplace",
        "label": "bool",
        "numberOfBytes": "1"
      },
      "t_mapping(t_address,t_struct(ImpermanentLossLeveragedReserveParameters)2453_storage)": {
        "encoding": "mapping",
        "key": "t_address",
        "label": "mapping(address => struct ImpermanentLossLeveragedReserveLSPL.ImpermanentLossLeveragedReserveParameters)",
        "numberOfBytes": "32",
        "value": "t_struct(ImpermanentLossLeveragedReserveParameters)2453_storage"
      },
      "t_struct(ImpermanentLossLeveragedReserveParameters)2453_storage": {
        "encoding": "inplace",
        "label": "struct ImpermanentLossLeveragedReserveLSPL.ImpermanentLossLeveragedReserveParameters",
        "members": [
          {
            "astId": 2446,
            "contract": "contracts/ImpermanentLossLeveragedReserveLSPL.sol:ImpermanentLossLeveragedReserveLSPL",
            "label": "upperBound",
            "offset": 0,
            "slot": "0",
            "type": "t_uint184"
          },
          {
            "astId": 2448,
            "contract": "contracts/ImpermanentLossLeveragedReserveLSPL.sol:ImpermanentLossLeveragedReserveLSPL",
            "label": "pctLongCap",
            "offset": 23,
            "slot": "0",
            "type": "t_uint72"
          },
          {
            "astId": 2450,
            "contract": "contracts/ImpermanentLossLeveragedReserveLSPL.sol:ImpermanentLossLeveragedReserveLSPL",
            "label": "initialPrice",
            "offset": 0,
            "slot": "1",
            "type": "t_uint184"
          },
          {
            "astId": 2452,
            "contract": "contracts/ImpermanentLossLeveragedReserveLSPL.sol:ImpermanentLossLeveragedReserveLSPL",
            "label": "leverageFactor",
            "offset": 23,
            "slot": "1",
            "type": "t_uint72"
          }
        ],
        "numberOfBytes": "64"
      },
      "t_uint184": {
        "encoding": "inplace",
        "label": "uint184",
        "numberOfBytes": "23"
      },
      "t_uint72": {
        "encoding": "inplace",
        "label": "uint72",
        "numberOfBytes": "9"
      }
    }
  }
}