{
  "address": "0x00000000576179ed05F6D0AF1bb55d154aF59CFf",
  "abi": [
    {
      "inputs": [
        {
          "internalType": "uint184",
          "name": "upperBound",
          "type": "uint184"
        }
      ],
      "name": "InvalidBound",
      "type": "error"
    },
    {
      "inputs": [
        {
          "internalType": "uint72",
          "name": "pctLongCap",
          "type": "uint72"
        }
      ],
      "name": "InvalidCap",
      "type": "error"
    },
    {
      "inputs": [
        {
          "internalType": "uint184",
          "name": "initialPrice",
          "type": "uint184"
        }
      ],
      "name": "InvalidInitialPrice",
      "type": "error"
    },
    {
      "inputs": [
        {
          "internalType": "address",
          "name": "longShortPair",
          "type": "address"
        }
      ],
      "name": "InvalidLSPAddress",
      "type": "error"
    },
    {
      "inputs": [
        {
          "internalType": "uint72",
          "name": "leverageFactor",
          "type": "uint72"
        }
      ],
      "name": "InvalidLeverage",
      "type": "error"
    },
    {
      "inputs": [],
      "name": "ParametersNotSet",
      "type": "error"
    },
    {
      "inputs": [],
      "name": "ParametersSet",
      "type": "error"
    },
    {
      "inputs": [
        {
          "internalType": "address",
          "name": "",
          "type": "address"
        }
      ],
      "name": "longShortPairParameters",
      "outputs": [
        {
          "internalType": "uint184",
          "name": "upperBound",
          "type": "uint184"
        },
        {
          "internalType": "uint72",
          "name": "pctLongCap",
          "type": "uint72"
        },
        {
          "internalType": "uint184",
          "name": "initialPrice",
          "type": "uint184"
        },
        {
          "internalType": "uint72",
          "name": "leverageFactor",
          "type": "uint72"
        }
      ],
      "stateMutability": "view",
      "type": "function"
    },
    {
      "inputs": [
        {
          "internalType": "int256",
          "name": "expiryPrice",
          "type": "int256"
        }
      ],
      "name": "percentageLongCollateralAtExpiry",
      "outputs": [
        {
          "internalType": "uint256",
          "name": "",
          "type": "uint256"
        }
      ],
      "stateMutability": "view",
      "type": "function"
    },
    {
      "inputs": [
        {
          "internalType": "address",
          "name": "longShortPair",
          "type": "address"
        },
        {
          "internalType": "uint184",
          "name": "upperBound",
          "type": "uint184"
        },
        {
          "internalType": "uint72",
          "name": "pctLongCap",
          "type": "uint72"
        },
        {
          "internalType": "uint184",
          "name": "initialPrice",
          "type": "uint184"
        },
        {
          "internalType": "uint72",
          "name": "leverageFactor",
          "type": "uint72"
        }
      ],
      "name": "setLongShortPairParameters",
      "outputs": [],
      "stateMutability": "nonpayable",
      "type": "function"
    }
  ],
  "transactionHash": "0x0fbde2d2f862746d8a0b0fab95e8b8d1abd680e29061fda667dda0a0a8ee9555",
  "args": [],
  "solcInputHash": "aaf21535b65fe2dfc1d522cd60d041d6",
  "bytecode": "0x608060405234801561001057600080fd5b506000805460ff19166001179055610a748061002d6000396000f3fe608060405234801561001057600080fd5b50600436106100415760003560e01c80632da52361146100465780636760f09b1461006c5780639299cbed14610081575b600080fd5b61005961005436600461069d565b61010b565b6040519081526020015b60405180910390f35b61007f61007a3660046106fb565b6103ad565b005b6100d161008f366004610760565b600160208190526000918252604090912080549101546001600160b81b03808316926001600160481b03600160b81b9182900481169392831692919091041684565b604080516001600160b81b0395861681526001600160481b0394851660208201529490921691840191909152166060820152608001610063565b6000610115610649565b33600090815260016020818152604092839020835160808101855281546001600160b81b038082168084526001600160481b03600160b81b938490048116968501969096529390950154948516958201959095529390920416606083015261019057604051636ba8dee360e01b815260040160405180910390fd5b600083136101bf5760208101516101af90670de0b6b3a7640000610798565b6001600160481b03169392505050565b805160160b83126101dd57602001516001600160481b031692915050565b6000670de0b6b3a7640000826040015160160b85670de0b6b3a764000061020491906107c0565b61020e919061085b565b6102189190610889565b90506000670de0b6b3a7640000836060015160080b8361023891906107c0565b610242919061085b565b90506000670de0b6b3a764000061025983826108c8565b8551671bc16d674ec800009061027790670de0b6b3a7640000610909565b60160b610284919061085b565b61028e91906107c0565b610298919061085b565b90506000670de0b6b3a764000085602001516001600160481b031686600001516102c2919061099d565b6102cc91906109cc565b6001600160b81b031690506000670de0b6b3a76400008660200151670de0b6b3a76400006102fa9190610798565b875161030f916001600160481b03169061099d565b61031991906109cc565b6001600160b81b03169050818310610345575050506020909201516001600160481b0316949350505050565b80831161037857602086015161036390670de0b6b3a7640000610798565b6001600160481b031698975050505050505050565b85516001600160b81b031661039584670de0b6b3a76400006109f2565b61039f9190610a11565b96505050505050505b919050565b6103b5610649565b6103c46000805460ff19169055565b846001600160a01b0316639f43ddd26040518163ffffffff1660e01b815260040160206040518083038186803b1580156103fd57600080fd5b505afa158015610411573d6000803e3d6000fd5b505050506040513d601f19601f820116820180604052508101906104359190610a25565b6104625760405163d096610560e01b81526001600160a01b03861660048201526024015b60405180910390fd5b6001600160b81b038416610494576040516351a22ceb60e11b81526001600160b81b0385166004820152602401610459565b670de0b6b3a7640000836001600160481b0316106104d057604051632ea539c360e01b81526001600160481b0384166004820152602401610459565b6001600160b81b0382166105025760405163158022fb60e11b81526001600160b81b0383166004820152602401610459565b6001600160481b03811661053457604051636e66464f60e01b81526001600160481b0382166004820152602401610459565b6001600160a01b038516600090815260016020818152604092839020835160808101855281546001600160b81b038082168084526001600160481b03600160b81b9384900481169685019690965293909501549485169582019590955293909204166060830152156105b957604051633190ad1960e01b815260040160405180910390fd5b50604080516080810182526001600160b81b0386811682526001600160481b038681166020808501918252878416858701908152878416606087019081526001600160a01b038d16600090815260019384905297882096519351938616600160b81b948616850217875590519051941693909216029190911791810191909155815460ff19161790555050505050565b60005460ff1661069b5760405162461bcd60e51b815260206004820152601f60248201527f5265656e7472616e637947756172643a207265656e7472616e742063616c6c006044820152606401610459565b565b6000602082840312156106af57600080fd5b5035919050565b80356001600160a01b03811681146103a857600080fd5b80356001600160b81b03811681146103a857600080fd5b80356001600160481b03811681146103a857600080fd5b600080600080600060a0868803121561071357600080fd5b61071c866106b6565b945061072a602087016106cd565b9350610738604087016106e4565b9250610746606087016106cd565b9150610754608087016106e4565b90509295509295909350565b60006020828403121561077257600080fd5b61077b826106b6565b9392505050565b634e487b7160e01b600052601160045260246000fd5b60006001600160481b03838116908316818110156107b8576107b8610782565b039392505050565b60006001600160ff1b03818413828413808216868404861116156107e6576107e6610782565b600160ff1b600087128281168783058912161561080557610805610782565b6000871292508782058712848416161561082157610821610782565b8785058712818416161561083757610837610782565b505050929093029392505050565b634e487b7160e01b600052601260045260246000fd5b60008261086a5761086a610845565b600160ff1b82146000198414161561088457610884610782565b500590565b60008083128015600160ff1b8501841216156108a7576108a7610782565b6001600160ff1b03840183138116156108c2576108c2610782565b50500390565b600080821280156001600160ff1b03849003851316156108ea576108ea610782565b600160ff1b839003841281161561090357610903610782565b50500190565b6000601682810b9084900b6001600160b71b038382138484138082168484048611161561093857610938610782565b6001600160b71b0319600085128281168783058712161561095b5761095b610782565b6000871292508582058712848416161561097757610977610782565b8585058712818416161561098d5761098d610782565b5050509290910295945050505050565b60006001600160b81b03828116848216811515828404821116156109c3576109c3610782565b02949350505050565b60006001600160b81b03838116806109e6576109e6610845565b92169190910492915050565b6000816000190483118215151615610a0c57610a0c610782565b500290565b600082610a2057610a20610845565b500490565b600060208284031215610a3757600080fd5b505191905056fea2646970667358221220d285086e6f155361e6f84cd239727144d7679378137f6578431df55b87f29c0364736f6c63430008090033",
  "devdoc": {
    "errors": {
      "InvalidBound(uint184)": [
        {
          "params": {
            "upperBound": "The upper price that the LSP will operate within."
          }
        }
      ],
      "InvalidCap(uint72)": [
        {
          "params": {
            "pctLongCap": "The cap on the percentage that can be allocated to the long token - enforced for improving MM on v2 AMMs for both L&S tokens."
          }
        }
      ],
      "InvalidInitialPrice(uint184)": [
        {
          "params": {
            "initialPrice": "The price of the asset at LSP deployment, used to calculate returns."
          }
        }
      ],
      "InvalidLSPAddress(address)": [
        {
          "params": {
            "longShortPair": "The address of the LSP contract."
          }
        }
      ],
      "InvalidLeverage(uint72)": [
        {
          "params": {
            "leverageFactor": "The amount of leverage you want to apply to the asset return."
          }
        }
      ]
    },
    "kind": "dev",
    "methods": {
      "percentageLongCollateralAtExpiry(int256)": {
        "params": {
          "expiryPrice": "The price from the optimistic oracle for the LSP price identifier."
        },
        "returns": {
          "_0": "expiryPercentLong to indicate how much collateral should be sent between long and short tokens."
        }
      },
      "setLongShortPairParameters(address,uint184,uint72,uint184,uint72)": {
        "details": "Note:  a) Any address can set these parameters  b) For safety, parameters should be set before depositing any synthetic tokens in a liquidity pool.  c) The parameters are set for the LSP contract address  d) Parameters can only be set once to prevent the deployer from changing the parameters after the fact.  e) upperBound can't be zero.  f) pctLongCap can't be greater than or equal to 1 ether (100%).  g) longShortPair must expose an expirationTimestamp method to validate it is correctly deployed.",
        "params": {
          "initialPrice": "The price of the asset at LSP deployment, used to calculate returns.",
          "leverageFactor": "The amount of leverage you want to apply to the asset return.",
          "longShortPair": "The address of the LSP contract.",
          "pctLongCap": "The cap on the percentage that can be allocated to the long token - enforced for improving MM on v2 AMMs for both L&S tokens.",
          "upperBound": "The upper price that the LSP will operate within."
        }
      }
    },
    "title": "Linear Long Short Pair Financial Product Library.",
    "version": 1
  },
  "userdoc": {
    "errors": {
      "InvalidBound(uint184)": [
        {
          "notice": "`upperBound` has to be greater than zero."
        }
      ],
      "InvalidCap(uint72)": [
        {
          "notice": "`pctLongCap` has to be less than 1 ether."
        }
      ],
      "InvalidInitialPrice(uint184)": [
        {
          "notice": "`initialPrice` has to be greater than zero."
        }
      ],
      "InvalidLSPAddress(address)": [
        {
          "notice": "`longShortPair` is not a valid LSP address."
        }
      ],
      "InvalidLeverage(uint72)": [
        {
          "notice": "`leverageFactor` has to be greater than 0."
        }
      ],
      "ParametersNotSet()": [
        {
          "notice": "Parameters not set for calling LSP."
        }
      ],
      "ParametersSet()": [
        {
          "notice": "Parameters already set for calling LSP."
        }
      ]
    },
    "kind": "user",
    "methods": {
      "percentageLongCollateralAtExpiry(int256)": {
        "notice": "Returns a number between 0 and 1e18 to indicate how much collateral each long and short token is entitled to per collateralPerPair."
      },
      "setLongShortPairParameters(address,uint184,uint72,uint184,uint72)": {
        "notice": "Enables any address to set the parameters for an associated financial product."
      }
    },
    "notice": "Adds settlement logic to modify the linearLSP to allow for leveraged LSPs. Also includes a capped percentage payable to the long (& short) token to make market making both the long and short tokens easier in a v2 style AMM.",
    "version": 1
  },
  "storageLayout": {
    "storage": [
      {
        "astId": 2013,
        "contract": "contracts/LeveragedReserveLSPL.sol:LeveragedReserveLSPL",
        "label": "_notEntered",
        "offset": 0,
        "slot": "0",
        "type": "t_bool"
      },
      {
        "astId": 2752,
        "contract": "contracts/LeveragedReserveLSPL.sol:LeveragedReserveLSPL",
        "label": "longShortPairParameters",
        "offset": 0,
        "slot": "1",
        "type": "t_mapping(t_address,t_struct(LeveragedReserveLongShortPairParameters)2747_storage)"
      }
    ],
    "types": {
      "t_address": {
        "encoding": "inplace",
        "label": "address",
        "numberOfBytes": "20"
      },
      "t_bool": {
        "encoding": "inplace",
        "label": "bool",
        "numberOfBytes": "1"
      },
      "t_mapping(t_address,t_struct(LeveragedReserveLongShortPairParameters)2747_storage)": {
        "encoding": "mapping",
        "key": "t_address",
        "label": "mapping(address => struct LeveragedReserveLSPL.LeveragedReserveLongShortPairParameters)",
        "numberOfBytes": "32",
        "value": "t_struct(LeveragedReserveLongShortPairParameters)2747_storage"
      },
      "t_struct(LeveragedReserveLongShortPairParameters)2747_storage": {
        "encoding": "inplace",
        "label": "struct LeveragedReserveLSPL.LeveragedReserveLongShortPairParameters",
        "members": [
          {
            "astId": 2740,
            "contract": "contracts/LeveragedReserveLSPL.sol:LeveragedReserveLSPL",
            "label": "upperBound",
            "offset": 0,
            "slot": "0",
            "type": "t_uint184"
          },
          {
            "astId": 2742,
            "contract": "contracts/LeveragedReserveLSPL.sol:LeveragedReserveLSPL",
            "label": "pctLongCap",
            "offset": 23,
            "slot": "0",
            "type": "t_uint72"
          },
          {
            "astId": 2744,
            "contract": "contracts/LeveragedReserveLSPL.sol:LeveragedReserveLSPL",
            "label": "initialPrice",
            "offset": 0,
            "slot": "1",
            "type": "t_uint184"
          },
          {
            "astId": 2746,
            "contract": "contracts/LeveragedReserveLSPL.sol:LeveragedReserveLSPL",
            "label": "leverageFactor",
            "offset": 23,
            "slot": "1",
            "type": "t_uint72"
          }
        ],
        "numberOfBytes": "64"
      },
      "t_uint184": {
        "encoding": "inplace",
        "label": "uint184",
        "numberOfBytes": "23"
      },
      "t_uint72": {
        "encoding": "inplace",
        "label": "uint72",
        "numberOfBytes": "9"
      }
    }
  }
}