{
  "address": "0x000000004113f60d8e84bB41C5F5a2eC825cEd1B",
  "abi": [
    {
      "inputs": [
        {
          "internalType": "uint256",
          "name": "upperBound",
          "type": "uint256"
        }
      ],
      "name": "InvalidBound",
      "type": "error"
    },
    {
      "inputs": [
        {
          "internalType": "uint256",
          "name": "pctLongCap",
          "type": "uint256"
        }
      ],
      "name": "InvalidCap",
      "type": "error"
    },
    {
      "inputs": [
        {
          "internalType": "address",
          "name": "longShortPair",
          "type": "address"
        }
      ],
      "name": "InvalidLSPAddress",
      "type": "error"
    },
    {
      "inputs": [],
      "name": "ParametersNotSet",
      "type": "error"
    },
    {
      "inputs": [],
      "name": "ParametersSet",
      "type": "error"
    },
    {
      "inputs": [
        {
          "internalType": "address",
          "name": "",
          "type": "address"
        }
      ],
      "name": "longShortPairParameters",
      "outputs": [
        {
          "internalType": "uint256",
          "name": "upperBound",
          "type": "uint256"
        },
        {
          "internalType": "uint256",
          "name": "pctLongCap",
          "type": "uint256"
        }
      ],
      "stateMutability": "view",
      "type": "function"
    },
    {
      "inputs": [
        {
          "internalType": "int256",
          "name": "expiryPrice",
          "type": "int256"
        }
      ],
      "name": "percentageLongCollateralAtExpiry",
      "outputs": [
        {
          "internalType": "uint256",
          "name": "",
          "type": "uint256"
        }
      ],
      "stateMutability": "view",
      "type": "function"
    },
    {
      "inputs": [
        {
          "internalType": "address",
          "name": "longShortPair",
          "type": "address"
        },
        {
          "internalType": "uint256",
          "name": "upperBound",
          "type": "uint256"
        },
        {
          "internalType": "uint256",
          "name": "pctLongCap",
          "type": "uint256"
        }
      ],
      "name": "setLongShortPairParameters",
      "outputs": [],
      "stateMutability": "nonpayable",
      "type": "function"
    }
  ],
  "transactionHash": "0xe4f5a58c80236541b8b014443c75932728c6d26a5639a6d56fe1bb43335fe140",
  "args": [],
  "solcInputHash": "aaf21535b65fe2dfc1d522cd60d041d6",
  "bytecode": "0x608060405234801561001057600080fd5b506000805460ff1916600117905561051a8061002d6000396000f3fe608060405234801561001057600080fd5b50600436106100415760003560e01c80632da52361146100465780639299cbed1461006c57806392a98f53146100a8575b600080fd5b6100596100543660046103d8565b6100bd565b6040519081526020015b60405180910390f35b61009361007a366004610408565b6001602081905260009182526040909120805491015482565b60408051928352602083019190915201610063565b6100bb6100b636600461042a565b6101e4565b005b60006100c7610384565b33600090815260016020818152604092839020835180850190945280548085529201549083015261010b57604051636ba8dee360e01b815260040160405180910390fd5b600080841261011a578361011d565b60005b90506000670de0b6b3a76400008360200151846000015161013e9190610473565b6101489190610492565b90506000670de0b6b3a76400008460200151670de0b6b3a764000061016d91906104b4565b85516101799190610473565b6101839190610492565b90508083116101ad5760208401516101a390670de0b6b3a76400006104b4565b9695505050505050565b8183106101c1575050506020015192915050565b83516101d584670de0b6b3a7640000610473565b6101a39190610492565b919050565b6101ec610384565b6101fb6000805460ff19169055565b826001600160a01b0316639f43ddd26040518163ffffffff1660e01b815260040160206040518083038186803b15801561023457600080fd5b505afa158015610248573d6000803e3d6000fd5b505050506040513d601f19601f8201168201806040525081019061026c91906104cb565b6102995760405163d096610560e01b81526001600160a01b03841660048201526024015b60405180910390fd5b600082116102bd5760405163e71bc92d60e01b815260048101839052602401610290565b670de0b6b3a764000081106102e8576040516330c2ba0360e01b815260048101829052602401610290565b6001600160a01b03831660009081526001602081815260409283902083518085019094528054808552920154908301521561033657604051633190ad1960e01b815260040160405180910390fd5b5060408051808201825283815260208082018481526001600160a01b03871660009081526001928390529390932091518255915191015561037f6000805460ff19166001179055565b505050565b60005460ff166103d65760405162461bcd60e51b815260206004820152601f60248201527f5265656e7472616e637947756172643a207265656e7472616e742063616c6c006044820152606401610290565b565b6000602082840312156103ea57600080fd5b5035919050565b80356001600160a01b03811681146101df57600080fd5b60006020828403121561041a57600080fd5b610423826103f1565b9392505050565b60008060006060848603121561043f57600080fd5b610448846103f1565b95602085013595506040909401359392505050565b634e487b7160e01b600052601160045260246000fd5b600081600019048311821515161561048d5761048d61045d565b500290565b6000826104af57634e487b7160e01b600052601260045260246000fd5b500490565b6000828210156104c6576104c661045d565b500390565b6000602082840312156104dd57600080fd5b505191905056fea2646970667358221220ab3ce80de47a0a486a691d4566cd22a7d9aed85d5fd6193b512a2b4eccb4f4d564736f6c63430008090033",
  "devdoc": {
    "errors": {
      "InvalidBound(uint256)": [
        {
          "params": {
            "upperBound": "The upper price that the LSP will operate within."
          }
        }
      ],
      "InvalidCap(uint256)": [
        {
          "params": {
            "pctLongCap": "The cap on the percentage that can be allocated to the long token - enforced for improving MM on v2 AMMs for both L&S tokens."
          }
        }
      ],
      "InvalidLSPAddress(address)": [
        {
          "params": {
            "longShortPair": "The address of the LSP contract."
          }
        }
      ]
    },
    "kind": "dev",
    "methods": {
      "percentageLongCollateralAtExpiry(int256)": {
        "params": {
          "expiryPrice": "The price from the optimistic oracle for the LSP price identifier."
        },
        "returns": {
          "_0": "expiryPercentLong to indicate how much collateral should be sent between long and short tokens."
        }
      },
      "setLongShortPairParameters(address,uint256,uint256)": {
        "details": "Note: a) Any address can set these parameters b) existing LSP parameters for address not set. c) upperBound > 0. d) parameters can only be set once to prevent the deployer from changing the parameters after the fact. e) For safety, parameters should be set before depositing any synthetic tokens in a liquidity pool. f) longShortPair must expose an expirationTimestamp method to validate it is correctly deployed.",
        "params": {
          "longShortPair": "The address of the LSP contract.",
          "pctLongCap": "The cap on the percentage that can be allocated to the long token - enforced for improving MM on v2 AMMs for both L&S tokens.",
          "upperBound": "The upper price that the LSP will operate within."
        }
      }
    },
    "title": "Linear Long Short Pair Financial Product Library.",
    "version": 1
  },
  "userdoc": {
    "errors": {
      "InvalidBound(uint256)": [
        {
          "notice": "`upperBound` has to be greater than zero."
        }
      ],
      "InvalidCap(uint256)": [
        {
          "notice": "`pctLongCap` has to be less than 1 ether."
        }
      ],
      "InvalidLSPAddress(address)": [
        {
          "notice": "`longShortPair` is not a valid LSP address."
        }
      ],
      "ParametersNotSet()": [
        {
          "notice": "Parameters not set for calling LSP."
        }
      ],
      "ParametersSet()": [
        {
          "notice": "Parameters already set for calling LSP."
        }
      ]
    },
    "kind": "user",
    "methods": {
      "percentageLongCollateralAtExpiry(int256)": {
        "notice": "Returns a number between 0 and 1e18 to indicate how much collateral each long and short token is entitled to per collateralPerPair."
      },
      "setLongShortPairParameters(address,uint256,uint256)": {
        "notice": "Enables any address to set the parameters for an associated financial product."
      }
    },
    "notice": "Adds settlement logic to create linear LSPs that have a capped percentage payable to the long (& short) token to make market making both the long and short tokens easier in a v2 style AMM.",
    "version": 1
  },
  "storageLayout": {
    "storage": [
      {
        "astId": 2013,
        "contract": "contracts/ReserveLSPL.sol:ReserveLSPL",
        "label": "_notEntered",
        "offset": 0,
        "slot": "0",
        "type": "t_bool"
      },
      {
        "astId": 3052,
        "contract": "contracts/ReserveLSPL.sol:ReserveLSPL",
        "label": "longShortPairParameters",
        "offset": 0,
        "slot": "1",
        "type": "t_mapping(t_address,t_struct(ReserveLinearLongShortPairParameters)3047_storage)"
      }
    ],
    "types": {
      "t_address": {
        "encoding": "inplace",
        "label": "address",
        "numberOfBytes": "20"
      },
      "t_bool": {
        "encoding": "inplace",
        "label": "bool",
        "numberOfBytes": "1"
      },
      "t_mapping(t_address,t_struct(ReserveLinearLongShortPairParameters)3047_storage)": {
        "encoding": "mapping",
        "key": "t_address",
        "label": "mapping(address => struct ReserveLSPL.ReserveLinearLongShortPairParameters)",
        "numberOfBytes": "32",
        "value": "t_struct(ReserveLinearLongShortPairParameters)3047_storage"
      },
      "t_struct(ReserveLinearLongShortPairParameters)3047_storage": {
        "encoding": "inplace",
        "label": "struct ReserveLSPL.ReserveLinearLongShortPairParameters",
        "members": [
          {
            "astId": 3044,
            "contract": "contracts/ReserveLSPL.sol:ReserveLSPL",
            "label": "upperBound",
            "offset": 0,
            "slot": "0",
            "type": "t_uint256"
          },
          {
            "astId": 3046,
            "contract": "contracts/ReserveLSPL.sol:ReserveLSPL",
            "label": "pctLongCap",
            "offset": 0,
            "slot": "1",
            "type": "t_uint256"
          }
        ],
        "numberOfBytes": "64"
      },
      "t_uint256": {
        "encoding": "inplace",
        "label": "uint256",
        "numberOfBytes": "32"
      }
    }
  }
}